:020000040800F2
:10000000B0200020F5220008592100085B210008DB
:100010005D2100085F210008612100080000000048
:100020000000000000000000000000006321000844
:100030006521000800000000672100086921000810
:100040001123000815230008192300081D230008A8
:100050002123000825230008292300082D23000858
:100060003123000835230008392300083D23000808
:100070004123000845230008492300084D230008B8
:100080005123000855230008592300085D23000868
:100090006123000865230008692300086D23000818
:1000A0007123000875230008792300087D230008C8
:1000B0008123000885230008892300088D23000878
:1000C0009123000895230008992300089D23000828
:1000D000A1230008A5230008A9230008AD230008D8
:1000E00071210008B1230008B5230008B9230008D6
:1000F000BD230008C1230008C5230008C923000848
:10010000CD230008D1230008D5230008D9230008F7
:10011000DD230008E1230008E5230008E9230008A7
:10012000ED230008F1230008F5230008F923000857
:10013000FD23000801240008052400080924000804
:100140000D240008112400081524000819240008B3
:100150001D24000821240008252400082924000863
:100160002D24000831240008352400083924000813
:100170003D240008412400080000000000000000A9
:1001800045240008492400082DE9FE4F0500002DF4
:1001900001D101201BE3DFF86098D9F8004014F08A
:1001A0000C04DFF8EC88D8F8007017F00307287803
:1001B000C00640F1C680002C03D00C2C7AD1012F50
:1001C00078D1DFF830A8DAF80000800704D5A869F4
:1001D000002801D10120FAE2DAF80000000704D576
:1001E000DAF8000010F0F00005E0DFF8A808006879
:1001F000000910F0F000296A88421ED2286A00F037
:1002000001FC002801D00120E1E2DAF8000050F002
:100210000800CAF80000DAF8001031F0F001286A8E
:100220000143CAF80010DFF87008016831F47F411B
:10023000EA6951EA022101601FE0DAF8000050F09B
:100240000800CAF80000DAF8001031F0F001286A5E
:100250000143CAF80010DFF84008016831F47F411B
:10026000EA6951EA02210160002C06D1286A00F0F7
:10027000C9FB002801D00120A9E200F050FBDFF803
:100280001C18D9F80020C2F30312895C11F01F0179
:10029000C840DFF868170860DFF86407006800F0FE
:1002A00011FC8DF800009DF80000002849D09DF851
:1002B00000008CE2A86900282DD0DFF83897D9F823
:1002C000000050F00100C9F8000000F02BFC06000F
:1002D000D9F80000800706D400F024FC801B032816
:1002E000F6D3032073E2D9F8000050F00800C9F8F3
:1002F0000000D9F8001031F0F001286A0143C9F874
:100300000010DFF89407016831F47F41EA6951EA8F
:100310000221016015E0DFF8DC96D9F80000400802
:100320004000C9F8000000F0FDFB0600D9F800000D
:10033000800706D500F0F6FB801B0328F6D30320C8
:1003400045E22878C00754D5082C03D00C2C0BD1DB
:10035000032F09D1DFF89C060068800349D568683F
:10036000002846D1012032E26868B0F5803F06D10E
:10037000DFF88006016851F48031016018E0686898
:10038000B0F5A02F0AD1DFF86C06016851F4802186
:100390000160016851F48031016009E0DFF8540622
:1003A000016831F480310160016831F4802101601D
:1003B000686800280ED000F0B5FB0600DFF83406B0
:1003C0000068800315D400F0ADFB801B6528F5D3D1
:1003D0000320FCE100F0A6FB0600DFF81806006829
:1003E000800306D500F09EFB801B6528F5D3032013
:1003F000EDE12878800752D5042C03D00C2C15D1C0
:10040000022F13D1DFF8EC050068400504D5E86839
:10041000002801D10120DAE1DFF87C06016831F023
:10042000F8512A6951EA0261016038E0E868002861
:100430001FD0DFF8C095D9F8000050F48070C9F8DB
:10044000000000F06FFB0600D9F80000400506D45C
:1004500000F068FB801B0328F6D30320B7E1DFF828
:100460003806016831F0F8512A6951EA02610160E9
:1004700015E0DFF88095D9F8000030F48070C9F8F5
:10048000000000F04FFB0600D9F80000400506D53B
:1004900000F048FB801B0328F6D3032097E128785F
:1004A00000072ED56869002815D0DFF8E895D9F83F
:1004B000000050F00100C9F8000000F033FB060016
:1004C000D9F8000080071CD400F02CFB801B032807
:1004D000F6D303207BE1DFF8BC95D9F80000400893
:1004E0004000C9F8000000F01DFB0600D9F800002C
:1004F000800706D500F016FB801B0328F6D30320E7
:1005000065E12878400740F181805FF00009DFF85D
:1005100090A5DAF80000C0000DD4DAF8000050F021
:100520008050CAF80000DAF8000010F08050019006
:10053000019801208146DFF86CB5DBF80000C005AA
:1005400013D4DBF8000050F48070CBF8000000F00A
:10055000E9FA0600DBF80000C00506D400F0E2FA74
:10056000801B0328F6D3032031E1A868012806D1B7
:10057000DFF83405016851F00101016017E0A86857
:1005800005280AD1DFF82005016851F00401016057
:10059000016851F00101016009E0DFF80C05016814
:1005A000490849000160016831F004010160A86850
:1005B000002810D000F0B6FA0600DFF8EC0400685E
:1005C000800719D400F0AEFA801B41F289318842CD
:1005D000F3D30320FBE000F0A5FA0600DFF8C8041F
:1005E0000068800708D500F09DFA801B41F2893130
:1005F0008842F3D30320EAE04846C0B2012805D17F
:10060000DAF8000030F08050CAF80000A86A00282C
:1006100000F0DC80A86A022840F0AC80D8F8000026
:10062000070017F00300E96A884226D117F070002E
:10063000296B491EB0EB011F1FD117F4FE40696BF7
:10064000B0EB012F19D1A86B072801D1002000E0E1
:10065000012017F4003181420FD117F4C000E96B7B
:100660004908491EB0EB415F07D117F0C060296C03
:100670004908491EB0EB416F5CD00C2C58D0DFF814
:1006800074A3DAF80000400103D4DAF80000C000D7
:1006900001D501209BE0DAF8000030F08070CAF844
:1006A000000000F03FFA8146DAF80000800107D52B
:1006B00000F038FAB0EB09000328F5D3032086E0F8
:1006C000D8F80010DFF8E4030140E86A0143286B22
:1006D000401E51EA0011686B51EA0021E86B4008A6
:1006E000401E51EA4051286C4008401E51EA4061CA
:1006F000A86B000951EA4041C8F80010DAF8000080
:1007000050F08070CAF80000D8F8000050F08070F7
:10071000C8F8000000F006FA0600DAF800008001D0
:1007200054D400F0FFF9801B0328F6D303204EE0D9
:1007300001204CE0DFF8BC92D9F80000800145D4DC
:10074000D9F8000050F08070C9F80000D8F8000017
:1007500050F08070C8F8000000F0E4F90600D9F805
:100760000000800132D400F0DDF9801B0328F6D3AD
:1007700003202CE00C2C27D0DFF87892D9F8000069
:1007800030F08070C9F80000D9F8000010F0205F48
:1007900005D1D8F8000080088000C8F80000D8F81B
:1007A0000010DFF80C030140C8F8001000F0BAF99F
:1007B0000600D9F80000800108D500F0B3F9801BCD
:1007C0000328F6D3032002E0012000E00020BDE86A
:1007D000FE8F2DE9F04104000D00002C01D1012015
:1007E0009BE0DFF8D072386810F00700A8420BD207
:1007F0003868C008C00028433860386810F0070027
:10080000A84201D0012088E02078C00742D5606866
:10081000032806D1DFF8DC01006880011CD4012028
:100820007BE06068022806D1DFF8C8010068800319
:1008300012D4012071E06068002806D1DFF8B4010D
:100840000068800708D4012067E0DFF8A80100688D
:10085000400501D4012060E0DFF89C81D8F8001049
:100860008908890060680143C8F8001000F05AF94F
:100870000600D8F8000010F00C006168B0EB810FA2
:1008800008D000F04FF9801B41F289318842F0D343
:10089000032042E02078800706D557490A6832F0E5
:1008A000F002A06802430A60386810F00700854231
:1008B0000BD23868C008C00028433860386810F090
:1008C0000700A84201D0012027E02078400706D584
:1008D00049490A6832F4E062E06802430A6020781D
:1008E000000707D54448016831F46051226951EA94
:1008F000C201016000F013F8DFF8A0113E4A12684F
:10090000C2F30312895C11F01F01C8403B49086023
:100910003B48006800F0D6F8C0B2BDE8F0812DE990
:10092000F041002600203449096811F00C01DFF87D
:1009300060C1DCF8007017F00307002903D00C2910
:100940001AD1012F18D1DFF8ACE0DEF800805FEAA1
:10095000087806D4DFF83CE1DEF800E0CEF3032EA1
:1009600003E0DEF800E0CEF3031E534E56F82E608F
:1009700000290CD130000AE0042903D1DFF83CE162
:10098000704604E0082902D1DFF834E170460C29F2
:100990002DD1DCF800E01EF0030E73469E46BEF13A
:1009A000020F03D0BEF1030F03D005E0DFF80CE126
:1009B00003E0DFF80CE100E0B646DCF80020C2F30B
:1009C0000212521C1500DCF80020C2F3062202FBC2
:1009D0000EFEBEFBF5F2DCF800C0CCF3416C1CF15E
:1009E000010C5FEA4C0C6446B2FBF4FC6046BDE8C7
:1009F000F0810000001002400810024004000020B6
:100A0000000000207CB504000025254E3068C000A1
:100A100003D500F08DF801000FE0306850F08050F1
:100A20003060306810F080500090009800F080F83E
:100A30000100306830F080503060B1F5007F09D19E
:100A4000812C15D3A12C02D30220050010E0012037
:100A500005000DE0812C02D30320050008E0802C66
:100A600002D10220050003E0702C01D10120050015
:100A700010480268D208D2002A430260006810F0D1
:100A80000700A84201D0012000E0002076BD000050
:100A90000C1002409410024004100240E4220008AE
:100AA0005810024000700040901002408C809DF968
:100AB000FFFFEEFE00200240202200080024F40088
:100AC00000127A0038B50400002513490878002880
:100AD0001DD04FF47A700978B0FBF1F00F49096826
:100AE000B1FBF0F000F005F900280DD1102C08D270
:100AF000002221005FF0FF3000F0DFF808480460BA
:100B000007E00120050004E00120050001E00120CC
:100B100005002800C0B232BD0800002004000020FB
:100B20000000002001480068704700BFA4000020BA
:100B3000DFF88000006810F4C06070470200B2F572
:100B4000007F26D1DFF86C00036813F4C063B3F5AF
:100B5000007F2CD0036833F4C06353F40073036048
:100B6000DFF85400036832204343DFF85000B3FB42
:100B7000F0F0401C0100DFF8480003685B0503D576
:100B8000002901D0491EF6E7006840050FD5032073
:100B90000EE0DFF82000036813F4C063B3F5806F44
:100BA00005D0036833F4C06353F48063036000200E
:100BB00070470000007000400400002040420F0019
:100BC0001470004010B410F00703DFF834412268BD
:100BD0004FF6FF010A40DFF82C1151EA03210A43C6
:100BE000226010BC7047DFF818010068C0F30220D3
:100BF00070470000010049B2002909D4012210F019
:100C00001F018A40404903005BB25B0941F8232081
:100C1000704710B4020052B2002A05D40A013B4BBF
:100C2000040064B21A5508E00A01394B040064B2AA
:100C300014F00F04234403F8042C10BC704770B464
:100C4000030013F00704D4F10700052801D30420A2
:100C500001E0D4F10700251D072D01D2002500E099
:100C6000E51E012616FA00F0401E0140A94016FAC2
:100C700005F56D1E2A401143080070BC704710B581
:100C80000400601EB0F1807F01D301200EE0601EE1
:100C9000204908600F215FF0FF30FFF7BAFF002006
:100CA0001D49086007201D490860002010BD10B5CF
:100CB00004002000FFF786FF10BD2DE9F04104007D
:100CC0000D0016000027FFF78EFF80463200290036
:100CD0004046FFF7B4FF0100200040B2FFF799FF44
:100CE000BDE8F08110B50400200040B2FFF782FF9C
:100CF00010BD10B504002000FFF7C1FF10BD0000BB
:100D00000CED00E00000FA0500E100E000E400E086
:100D100018ED00E014E000E018E000E010E000E072
:100D200010B50400002C01D1012035E094F83D00FD
:100D3000002805D1002084F83C00200000F0A3FC2E
:100D4000022084F83D00211D206800F047FA0120B0
:100D500084F84800012084F83E00012084F83F0018
:100D6000012084F84000012084F84100012084F82B
:100D70004200012084F84300012084F8440001204F
:100D800084F84500012084F84600012084F84700DB
:100D9000012084F83D00002010BD10B50400002C97
:100DA00001D1012035E094F83D00002805D1002054
:100DB00084F83C00200000F0D5FC022084F83D00BF
:100DC000211D206800F00AFA012084F84800012063
:100DD00084F83E00012084F83F00012084F84000A0
:100DE000012084F84100012084F84200012084F8A9
:100DF0004300012084F84400012084F845000120CC
:100E000084F84600012084F84700012084F83D0062
:100E1000002010BD70B505000C00002C02D195F823
:100E20003E0015E0042C02D195F83F0010E0082C9C
:100E300002D195F840000BE00C2C02D195F841004E
:100E400006E0102C02D195F8420001E095F843002D
:100E5000012801D0012089E0002C04D1022085F86E
:100E60003E00C0B21FE0042C04D1022085F83F00F0
:100E7000C0B218E0082C04D1022085F84000C0B2AE
:100E800011E00C2C04D1022085F84100C0B20AE028
:100E9000102C04D1022085F84200C0B203E00220E9
:100EA00085F84300C0B201222100286800F0A5FBAC
:100EB000DFF8BC102868884213D02868DFF8B42017
:100EC00090420ED02868DFF8B020904209D0286800
:100ED000DFF8B820904204D02868DFF8AC209042B8
:100EE00001D1012000E00020C0B2002805D0286810
:100EF000406C50F400402A685064286888421CD036
:100F00002868B0F1804F18D02868DFF87010884248
:100F100013D02868DFF8681088420ED02868DFF800
:100F20006410884209D02868DFF84810884204D04D
:100F30002868DFF84410884211D128688168DFF8FA
:100F4000500001400E00062E0FD0B6F5803F0CD0A9
:100F50002868006850F001002968086005E02868EA
:100F6000006850F0010029680860002070BD000092
:100F7000002C0140003401400040014000040040CA
:100F800000080040000C00400048014000440140BF
:100F90000700010070B504000D00160094F83C0035
:100FA000012801D10220A1E0012084F83C0030009A
:100FB00000280AD004281FD0082835D00C284AD091
:100FC000102860D0142875D08CE02900206800F02B
:100FD00068F92068806950F00800216888612068FD
:100FE000806930F00400216888612068816928697F
:100FF00001432068816175E02900206800F09FF9B5
:101000002068806950F400602168886120688069E8
:1010100030F480602168886120688069296950EA1D
:101020000120216888615DE02900206800F0CFF987
:101030002068C06950F008002168C8612068C06954
:1010400030F004002168C8612068C1692869014343
:101050002068C16146E02900206800F0F7F92068A7
:10106000C06950F400602168C8612068C06930F42C
:1010700080602168C8612068C069296950EA012040
:101080002168C8612EE02900206800F00EFA20686F
:10109000406D50F00800216848652068406D30F0D0
:1010A0000400216848652068416D28690143206873
:1010B000416517E02900206800F023FA2068406DA0
:1010C00050F40060216848652068406D30F480600D
:1010D000216848652068406D296950EA012021682F
:1010E0004865FFE7002084F83C00002070BD70B523
:1010F00004000D0094F83C00012801D102206CE0AE
:10110000012084F83C00022084F83D0020688668B5
:10111000DFF84804064036F47F4620688660286879
:1011200000284ED010284CD020284AD0302848D053
:1011300040283CD0502826D060282ED0702807D0D8
:10114000B0F5805F03D0B0F5005F0FD03EE03DE02A
:10115000EB686A68A968206800F043FA2068806834
:1011600050F077000600206886602FE0EB686A6820
:10117000A968206800F035FA2068806850F4804043
:101180002168886022E0EA686968206800F0FCF95C
:101190005021206800F01DFA18E0EA6869682068AC
:1011A00000F004FA6021206800F013FA0EE0EA680B
:1011B0006968206800F0E8F94021206800F009FA29
:1011C00004E02968206800F004FAFFE7012084F8B1
:1011D0003D00002084F83C00002070BD10B404687D
:1011E000DFF87C33984212D0B0F1804F0FD0DFF897
:1011F000742390420BD0DFF87023904207D0DFF8C1
:101200006C23904203D0DFF86823904203D134F07E
:1012100070044A68144398421ED0B0F1804F1BD02E
:10122000DFF84023904217D0DFF83C23904213D0E0
:10123000DFF8382390420FD0DFF8342390420BD0F0
:10124000DFF83023904207D0DFF82C23904203D000
:10125000DFF82823904203D134F44074CA68144361
:1012600034F080044A69144304608A68C2620A68E0
:10127000826298420FD0DFF8F82290420BD0DFF85C
:10128000F422904207D0DFF8F022904203D0DFF83A
:10129000EC22904201D10A6902630122426110BC32
:1012A000704770B4026A520852000262056A4368CD
:1012B0008469DFF8CC221440A408A4000A6814430F
:1012C00035F002058A681543DFF89462B0420FD00A
:1012D000DFF89C2290420BD0DFF89822904207D092
:1012E000DFF89422904203D0DFF89022904205D19B
:1012F00035F00805CA68154335F00405B0420FD033
:10130000DFF86C2290420BD0DFF86822904207D0C1
:10131000DFF86422904203D0DFF86022904207D1C8
:1013200033F4807333F400734A6913438A691343B7
:10133000436084614A684263056270BC704770B460
:10134000026A32F010020262056A43688469DFF8BB
:101350003422144034F440740A6854EA022435F00C
:1013600020058A6855EA0215DFF8F421904203D07F
:10137000DFF8FC61B04206D135F08005CE6855EA51
:10138000061535F0400590420FD0DFF8E421904279
:101390000BD0DFF8E021904207D0DFF8DC2190424B
:1013A00003D0DFF8D821904209D133F4806333F4BD
:1013B00000634A6953EA82038A6953EA82034360FD
:1013C00084614A688263056270BC7047000070B433
:1013D000026A32F480720262056A4368C469684A2C
:1013E0001440A408A4000A68144335F400758A6800
:1013F00055EA02255A4A904202D05D4EB04206D1CB
:1014000035F40065CE6855EA062535F480659042CE
:101410000BD0574A904208D0564A904205D0564ABF
:10142000904202D0554A904209D133F4805333F4AC
:1014300000534A6953EA02138A6953EA021343606C
:10144000C4614A68C263056270BC704730B4026A06
:1014500032F480520262056A4368C469494A144002
:1014600034F440740A6854EA022435F400558A685A
:1014700055EA02353A4A90420BD03D4A904208D094
:101480003C4A904205D03C4A904202D03B4A9042AE
:1014900004D133F480434A6953EA82134360C46140
:1014A0004A680264056230BC704730B4026A32F4A4
:1014B00080320262056A4368446D314A14400A680A
:1014C000144335F400358A6855EA0245244A9042AF
:1014D0000BD0274A904208D0264A904205D0264A8F
:1014E000904202D0254A904204D133F480334A69B5
:1014F00053EA0223436044654A688265056230BC52
:10150000704730B4026A32F480120262056A43689E
:10151000446D1C4A14400A6854EA022435F400154C
:101520008A6855EA02550E4A90420BD0104A904202
:1015300008D0104A904205D00F4A904202D00F4A7C
:10154000904204D133F480234A6953EA82234360F2
:1015500044654A68C265056230BC704788FFFEFF7B
:10156000002C01400004004000080040000C004036
:101570000034014000400140004401400048014067
:101580008FFFFEFFFF8FFFFE10B4046A036A5B0843
:101590005B000362836933F0F00353EA021334F013
:1015A0000A040C438361046210BC704710B4036AE0
:1015B00033F0100303628369046A33F4704353EA1F
:1015C000023334F0A00454EA01148361046210BCB5
:1015D0007047836833F0700351F007021343836050
:1015E000704730B4846834F47F4452EA010555EA08
:1015F00003252C43846030BC704730B4012411F0C3
:101600001F0314FA03F3046A9C430462046A11F092
:101610001F0512FA05F52C43046230BC704730B444
:10162000002513E050F8042BD30744BFA9F10103B0
:101630009A18091F042942F8045BFAD213468C0752
:1016400044BF15809B1CC90748BF1D7050F8041B80
:101650000029E7D130BC704781B03D48016851F0A6
:1016600001010160006810F0010000900098394805
:10167000016851F080510160006810F080500090C6
:10168000009801B0704781B00168B1F1804F0AD174
:1016900030490A6852F001020A60096811F001013C
:1016A000009100990DE001682B4A914209D1284927
:1016B0000A6852F480320A60096811F4803100919E
:1016C000009901B0704710B586B0040014220021C3
:1016D000684600F048F82068B0F1804F19D11F48E3
:1016E000016851F001010160006810F001000590EF
:1016F00005982020009002200190002002900020F8
:1017000003900120049069465FF0904000F04CF88F
:101710001CE020681049884218D11048016851F037
:1017200002010160006810F00200059005984FF476
:101730008040009002200190002002900020039041
:101740000E2004906946064800F02EF806B010BD41
:101750006010024058100240004001404C1002400E
:1017600000040048704710B5044610460A4601467A
:10177000204600F049F9204610BD30B40EE0026862
:10178000436802440830DC0744BFA9F10104E318B0
:1017900052F8045B43F8045B091FF9D150F8041BAD
:1017A0000029ECD130BC7047F8B40300002508686C
:1017B000E840002800F0F88001260F6816FA05F0CE
:1017C00007403A00002A00F0ED804868012808D060
:1017D0004868022805D04868112802D048681228B5
:1017E00021D19F685FF0030C2800C0B240001CFAB2
:1017F00000FC37EA0C07D1F80CC02800C0B240004A
:101800001CFA00FC5CEA07079F60D3F804C016FAD4
:1018100005F03CEA000C4868C0F30010A84050EA0C
:101820000C0C64465C60087910F00300032809D1B1
:10183000D86AAE40B0434E68C6F3C006AE403043EF
:101840000400DC62DE6803272800C0B2400017FAFB
:1018500000F08643D1F808C02800C0B240001CFA4E
:1018600000FC5CEA0606DE604868022802D0486890
:1018700012281ED12800C00803EB8000046A5FF024
:101880000F0C15F00700C0B280001CFA00FC34EA0F
:101890000C04D1F810C015F00700C0B280001CFA8B
:1018A00000FC5CEA040426002800C00803EB80006A
:1018B00006621C682800C0B240008740BC430F7914
:1018C00017F003072800C0B2400087403C431C606B
:1018D0004868C00066D53E48066856F001060660B6
:1018E000006810F00100009000983A4F280080082E
:1018F00057F820605FF00F0C15F00300C0B28000B5
:101900001CFA00FC36EA0C06B3F1904F01D100241A
:101910001EE03148834201D1012419E02F4883425F
:1019200001D1022414E02E48834201D103240FE0A8
:101930002C48834201D104240AE02B48834201D180
:10194000052405E02948834201D1062400E007244C
:1019500015F00300C0B280008440264328008008B0
:1019600047F82060224C206890434F68FF0300D561
:10197000104320601F4E346894434F68BF0300D566
:10198000144334601C4E306890434F68FF0200D50A
:1019900010433060194E346894434F68BF0200D53D
:1019A000144334606D1C02E7F1BC704710B50400AD
:1019B00013480168220092B2114206D0210089B278
:1019C0000160200080B200F01DF810BD0000000092
:1019D0006010024008000140000400480008004870
:1019E000000C00480010004800140048001800488F
:1019F0000004014004040140080401400C040140BB
:101A0000140401407047000062F30F2262F31F428A
:101A1000401810F0030308D0C91A1FD3DB0748BFD2
:101A200000F8012D28BF20F8022D130030B4144611
:101A30001546103928BF20E93C00FAD8490728BFCD
:101A400020E90C0048BF40F8042D890028BF20F889
:101A5000022D48BF00F8012D30BC7047C91818BFCF
:101A600000F8012DCB0728BF00F8012D70470000BA
:101A7000F8B50025002400F0A3FA00F023F900F0E7
:101A800032FA00F057F900F0B0F9DFF8CC04016841
:101A900051F002010160DFF8C404016851F0010156
:101AA0000160DFF8BC64306830F0005030603068AE
:101AB00050F0805030605FF09047386830F400603C
:101AC0003860386850F480603860DFF89804007837
:101AD000002809D0022831D023D304284FD03ED388
:101AE000052800F09180D2E0306830F0005030607E
:101AF000306850F080503060386830F400603860F2
:101B0000386850F480603860DFF85C04016831F0B8
:101B100020010160DFF85404016831F48041016064
:101B2000D3E7DFF84404016851F020010160DFF8D9
:101B30003C04016851F480410160C6E7DFF82804E5
:101B4000016891F020010160DFF82004016891F440
:101B5000804101604FF4FA7000F044FAB5E7DFF815
:101B60000804016891F020010160DFF800040168B9
:101B700091F480410160642000F034FAA5E73868F0
:101B800030F480603860386850F400603860DFF806
:101B9000E003016831F470010160016851F48011C3
:101BA0000160306830F080503060306850F0005094
:101BB0003060DFF8C003016831F0706101600168D6
:101BC00051F000710160016851F0806101600168AD
:101BD00051F000610160322000F004FA002C01D1C4
:101BE00064200500B4F5FA6F02D17FF063000500B0
:101BF0002C19E149200080B200F0C8F9DF4920002B
:101C000080B200F0C3F960E7386830F48060386073
:101C1000386850F400603860D548016831F47001CC
:101C20000160016851F480110160306830F080502B
:101C30003060306850F000503060CE48016831F0BC
:101C400070610160016851F000710160016851F03C
:101C500080610160016851F000610160192000F0AD
:101C6000C1F9002C01D164200500B4F5FA6F02D14E
:101C70007FF0630005002C19BF49200080B200F0FE
:101C800085F9BE49200080B200F080F91DE7306878
:101C900030F000503060306850F08050306038686C
:101CA00030F400603860386850F480603860AE48C6
:101CB000016831F020010160AC48016831F48041D5
:101CC000016002E780B596B04422002105A8FFF725
:101CD0004AFD142200216846FFF745FD4FF40070CD
:101CE000FEF72CFF002801D000F068F902200590D3
:101CF0004FF4807008901020099000200F9005A8E4
:101D0000FEF742FA002801D000F058F90F200090A9
:101D100001200190002002900020039000200490F8
:101D200000216846FEF755FD002801D000F046F975
:101D300017B000BD10B58EB0102200210AA8FFF721
:101D400012FD0C2200216846FFF70DFD1C22002128
:101D500003A8FFF708FD884C5FF0804020609F20BB
:101D600060600020A06040F2CF70E0600020206141
:101D70000020A0612000FEF7D3FF002801D000F072
:101D80001DF94FF480500A900AA92000FFF7AFF91F
:101D9000002801D000F012F92000FEF7FEFF002815
:101DA00001D000F00BF9002000900020029069465D
:101DB000200000F02BF9002801D000F0FFF860208F
:101DC000039000200490002005900020079000223E
:101DD00003A92000FFF7DEF8002801D000F0EEF89C
:101DE0002000FFF770FC0EB010BD18B599B010229E
:101DF00000210AA8FFF7B7FC0C2200216846FFF774
:101E0000B2FC1C22002103A8FFF7ADFC2C2200210C
:101E10000EA8FFF7A8FC594C594820609F2060602D
:101E20000020A06040F2CF70E06000202061002020
:101E300060610020A0612000FEF772FF002801D041
:101E400000F0BCF84FF480500A900AA92000FFF778
:101E50004EF9002801D000F0B1F82000FEF79DFFF8
:101E6000002801D000F0AAF8002000900020029085
:101E70006946200000F0CAF8002801D000F09EF862
:101E80006020039000200490002005900020069020
:101E9000002007900020089000200990002203A94C
:101EA0002000FFF777F8002801D000F087F8002025
:101EB0000E9000200F900020109000201190002024
:101EC00012904FF400501390002018900EA920009B
:101ED00000F0EAF8002801D000F070F82000FFF7C9
:101EE000F2FB1AB010BD80B586B01422002101A803
:101EF000FFF739FC1848016851F0040101600168DE
:101F000011F0040100910099016851F00101016094
:101F1000016811F0010100910099016851F002017E
:101F20000160006810F00200009000984FF400502B
:101F30000190144802900020039001A91248FFF775
:101F400033FC002200212820FEF7B7FE2820FEF7F0
:101F5000C9FE07B000BD00004C100240481002400E
:101F600000040048A80000201400004814040048A1
:101F700020000048240400480C00002058000020E5
:101F800000400140000011100008004830B587B043
:101F900004000D0060200090200080B2019000201D
:101FA000029000200490002269462800FEF7F2FF0C
:101FB00000212800FEF72EFF07B030BD72B6FEE705
:101FC00010B500240320FEF772FE0F20FEF77AFD05
:101FD000002802D00120040001E0FFF73DFB2000B3
:101FE000C0B210BD70B50400FEF79CFD05002600D0
:101FF00016F1010F02D0044800783618FEF792FD62
:10200000401BB042FAD370BD0800002070B402003B
:1020100092F83C00012801D1022043E0012082F81F
:102020003C00022082F83D00106843681068846814
:10203000434D1068A84203D01068454EB04203D10A
:1020400033F470034868034333F0700308680343B4
:10205000106843601068A84217D01068B0F1804F34
:1020600013D01068374DA8420FD01068364DA842E3
:102070000BD01068354DA84207D01068344DA842E7
:1020800003D01068334DA84205D134F0800488682D
:10209000044310688460012082F83D00002082F82B
:1020A0003C00002070BC704710B40200002392F87E
:1020B0003C00012801D102203EE0012082F83C00D2
:1020C0001B0A1B02C868034333F440738868034348
:1020D00033F480634868034333F4006308680343C0
:1020E00033F480530869034333F4005348690343CE
:1020F00033F48043886A034333F47023886953EAD6
:10210000004310680E4CA04203D01068104CA0424F
:102110000CD133F47003486A53EA005333F08073F0
:10212000C869034333F00073086A034310684364CB
:10213000002082F83C00002010BC70470000000026
:10214000002C01400004004000080040000C00404A
:102150000034014000400140FEE7FEE7FEE7FEE7F5
:10216000FEE770477047704780B500F02BF801BD5F
:1021700080B54FF40050FFF719FC11480178002991
:1021800008D002290CD008D304290FD00BD305297D
:102190000FD011E00121017010E0022101700DE06B
:1021A000032101700AE00421017007E0052101709C
:1021B00004E00021017001E00021017001BD000078
:1021C000A800002003480168034A127889180160BA
:1021D000704700BFA4000020080000200B490868D9
:1021E00050F0010008600020094A10600A680948A0
:1021F00002400A604FF48050074A1060086830F4CB
:1022000080200860002005490860704700100240E7
:1022100008100240FFFFF6EA0C10024018100240BE
:10222000A0860100400D0300801A060000350C0056
:1022300040420F0080841E0000093D0000127A0019
:102240000024F40000366E010048E801006CDC0256
:1022500010B5074979441831064C7C44163404E023
:102260000A68081D114488470146A142F8D110BDF3
:102270000800000028000000A7F3FFFFA0000000F6
:102280000C00002000000000F3F4FFFF0C00000031
:10229000BC010000000000200000000000F00DF86C
:1022A000002801D0FFF7D4FFAFF300800020AFF388
:1022B0000080FFF7DDFB00F002F80120704700F01E
:1022C00001B800000746384600F002F8FBE70000BE
:1022D00080B5AFF30080024A11001820ABBEFBE7C7
:1022E00026000200000000000000000001020304BC
:1022F000060708090148804701480047DD2100081A
:1023000005230008AFF30080AFF30080FFF7C6FF9E
:10231000FFF7FEBFFFF7FEBFFFF7FEBFFFF7FEBFF1
:10232000FFF7FEBFFFF7FEBFFFF7FEBFFFF7FEBFE1
:10233000FFF7FEBFFFF7FEBFFFF7FEBFFFF7FEBFD1
:10234000FFF7FEBFFFF7FEBFFFF7FEBFFFF7FEBFC1
:10235000FFF7FEBFFFF7FEBFFFF7FEBFFFF7FEBFB1
:10236000FFF7FEBFFFF7FEBFFFF7FEBFFFF7FEBFA1
:10237000FFF7FEBFFFF7FEBFFFF7FEBFFFF7FEBF91
:10238000FFF7FEBFFFF7FEBFFFF7FEBFFFF7FEBF81
:10239000FFF7FEBFFFF7FEBFFFF7FEBFFFF7FEBF71
:1023A000FFF7FEBFFFF7FEBFFFF7FEBFFFF7FEBF61
:1023B000FFF7FEBFFFF7FEBFFFF7FEBFFFF7FEBF51
:1023C000FFF7FEBFFFF7FEBFFFF7FEBFFFF7FEBF41
:1023D000FFF7FEBFFFF7FEBFFFF7FEBFFFF7FEBF31
:1023E000FFF7FEBFFFF7FEBFFFF7FEBFFFF7FEBF21
:1023F000FFF7FEBFFFF7FEBFFFF7FEBFFFF7FEBF11
:10240000FFF7FEBFFFF7FEBFFFF7FEBFFFF7FEBF00
:10241000FFF7FEBFFFF7FEBFFFF7FEBFFFF7FEBFF0
:10242000FFF7FEBFFFF7FEBFFFF7FEBFFFF7FEBFE0
:10243000FFF7FEBFFFF7FEBFFFF7FEBFFFF7FEBFD0
:10244000FFF7FEBFFFF7FEBFFFF7FEBF1000000063
:0824500000093D00010000003D
:0400000508002305C7
:00000001FF
